:020000040800F2
:100000000050002089150008F1140008F7140008BA
:10001000FD14000803150008091500080000000081
:100020000000000000000000000000000F150008A4
:100030001B150008000000002715000833150008F4
:10004000D1150008D1150008D1150008D1150008F8
:10005000D1150008D1150008D1150008D1150008E8
:10006000D1150008D1150008D1150008D1150008D8
:10007000D1150008D1150008D1150008D1150008C8
:10008000D1150008D1150008D1150008D1150008B8
:10009000D1150008D1150008D1150008D1150008A8
:1000A000D1150008D1150008D1150008D115000898
:1000B0004115000855150008D1150008D115000894
:1000C000D1150008D1150008D1150008D115000878
:1000D000D1150008D115000869150008D1150008D0
:1000E000D1150008D1150008D11500080000000046
:1000F0000000000000000000000000000000000000
:0C01000000000000000000005FF808F1A3
:10010C0010B5054C237833B9044B13B10448AFF345
:10011C0000800123237010BD10000020000000009F
:10012C00383D000808B5034B1BB103490348AFF336
:10013C00008008BD0000000014000020383D0008BD
:10014C00034613F8012B002AFBD1181A013870470B
:10015C0080B500AFC94B00221A7000224FF4007119
:10016C00C74801F012FE01224FF48071C44801F01F
:10017C000CFE01228021C24801F007FE0122402121
:10018C00BF4801F002FE2021BD4801F0E7FD034607
:10019C00002B10D1042001F079FA00BF2021B848BF
:1001AC0001F0DCFD0346002BF8D0042001F06EFAC0
:1001BC003122B24B1A701021B14801F0CFFD034629
:1001CC00002B10D1042001F061FA00BF1021AC48C3
:1001DC0001F0C4FD0346002BF8D0042001F056FAC0
:1001EC003222A64B1A700821A54801F0B7FD034630
:1001FC00002B10D1042001F049FA00BF0821A048BF
:10020C0001F0ACFD0346002BF8D0042001F03EFABF
:10021C0033229A4B1A704FF400419A4801F09EFD1C
:10022C000346002B11D1042001F030FA00BF4FF42B
:10023C000041944801F092FD0346002BF7D00420B6
:10024C0001F024FA41228D4B1A7001224FF40071F7
:10025C008B4801F09AFD00224FF48071884801F020
:10026C0094FD01228021864801F08FFD012240215E
:10027C00834801F08AFD2021814801F06FFD03467F
:10028C00002B10D1042001F001FA00BF20217C4882
:10029C0001F064FD0346002BF8D0042001F0F6F9C0
:1002AC003422764B1A701021754801F057FD034625
:1002BC00002B10D1042001F0E9F900BF1021704887
:1002CC0001F04CFD0346002BF8D0042001F0DEF9C0
:1002DC0035226A4B1A700821694801F03FFD03462C
:1002EC00002B10D1042001F0D1F900BF0821644883
:1002FC0001F034FD0346002BF8D0042001F0C6F9C0
:10030C0036225E4B1A704FF400415E4801F026FD18
:10031C000346002B11D1042001F0B8F900BF4FF4B3
:10032C000041584801F01AFD0346002BF7D0042079
:10033C0001F0ACF94222514B1A7001224FF40071BA
:10034C004F4801F022FD01224FF480714C4801F01E
:10035C001CFD002280214A4801F017FD012240219A
:10036C00474801F012FD2021454801F0F7FC0346F7
:10037C00002B10D1042001F089F900BF2021404846
:10038C0001F0ECFC0346002BF8D0042001F07EF9C0
:10039C0037223A4B1A701021394801F0DFFC034622
:1003AC00002B10D1042001F071F900BF102134484A
:1003BC0001F0D4FC0346002BF8D0042001F066F9C0
:1003CC0038222E4B1A7008212D4801F0C7FC034629
:1003DC00002B10D1042001F059F900BF0821284846
:1003EC0001F0BCFC0346002BF8D0042001F04EF9C0
:1003FC003922224B1A704FF40041224801F0AEFC16
:10040C000346002B11D1042001F040F900BF4FF43A
:10041C0000411C4801F0A2FC0346002BF7D004203D
:10042C0001F034F94322154B1A7001224FF400717C
:10043C00134801F0AAFC01224FF48071104801F01E
:10044C00A4FC012280210E4801F09FFC00224021D7
:10045C000B4801F09AFC2021094801F07FFC03466F
:10046C00002B18D1042001F011F900BF2021044801
:10047C0001F074FC0346002B06E000BF2C000020AA
:10048C00000C014000080140F0D0042001F0FEF8FF
:10049C002A22284B1A701021274801F05FFC0346D2
:1004AC00002B10D1042001F0F1F800BF10212248DC
:1004BC0001F054FC0346002BF8D0042001F0E6F8C0
:1004CC0030221C4B1A7008211B4801F047FC0346D4
:1004DC00002B10D1042001F0D9F800BF08211648D8
:1004EC0001F03CFC0346002BF8D0042001F0CEF8C0
:1004FC002322104B1A704FF40041104801F02EFCCF
:10050C000346002B11D1042001F0C0F800BF4FF4BA
:10051C0000410A4801F022FC0346002BF7D00420CE
:10052C0001F0B4F84422034B1A70024B1B781846A6
:10053C0080BD00BF2C000020000C014000080140D1
:10054C0080B584B002AF7860084611461A4603465F
:10055C00FB700B46BB7013467B707B68002283F8E4
:10056C003720BB78012B08D97B6893F8373043F0E0
:10057C000803DAB27B6883F837207B68BA7883F893
:10058C003E207B68FA7883F83D20FA78FB7840337C
:10059C000093134640220021786800F018F97B780C
:1005AC00002B0BD0BB78012B08D17B6893F837302C
:1005BC0043F00403DAB27B6883F83720322001F071
:1005CC0065F80321786800F09BF9052001F05EF8CE
:1005DC000321786800F094F9962000F0AFF903211C
:1005EC00786800F08DF90221786800F089F9012013
:1005FC0001F04CF87B6893F8373043F02003DBB202
:10060C001946786800F07CF97B68042283F8362060
:10061C00786800F033F8786800F015F8022001F0E3
:10062C0035F87B68022283F838207B6893F83830E1
:10063C0043F00403DBB21946786800F061F900BF9F
:10064C000837BD4680BD80B582B000AF786001210F
:10065C00786800F055F900BF0837BD4680BD80B5FD
:10066C0082B000AF78600221786800F049F902206E
:10067C0001F00CF800BF0837BD4680BD80B582B0D4
:10068C0000AF78607B6893F8363043F00403DAB23D
:10069C007B6883F836207B6893F8363043F0080388
:1006AC00DBB21946786800F02BF900BF0837BD465D
:1006BC0080BD80B582B000AF78607B6893F836302F
:1006CC0043F00103DAB27B6883F836207B6893F839
:1006DC00363043F00803DBB21946786800F010F9A5
:1006EC0000BF0837BD4680BD80B582B000AF7860D2
:1006FC007B6893F8363043F00203DAB27B6883F8F8
:10070C0036207B6893F8363043F00803DBB2194689
:10071C00786800F0F5F800BF0837BD4680BD80B59D
:10072C0084B000AF78600B46FB701346BB7004239B
:10073C00FB60BB78FA689A4203D8FB68DBB2013BDA
:10074C00BB707B6893F83E30BA789A4204D37B68CE
:10075C0093F83E30013BBB70BB787A68134493F836
:10076C003920FB781344DBB25BB263F07F035BB2DE
:10077C00DBB21946786800F0C3F800BF1037BD46ED
:10078C0080BD80B582B000AF7860396007E03B680F
:10079C005A1C3A601B781946786800F094F83B684C
:1007AC001B78002BF3D100BF00BF0837BD4680BDBE
:1007BC0080B582B000AF78600B46FB70FB781946B1
:1007CC00786800F080F800BF0837BD4680BD80B463
:1007DC0085B000AFF860B9607A603B60BB68DAB294
:1007EC00FB6883F839207B68DAB2FB6883F83A201F
:1007FC003B68DAB2FB6883F83B20BB69DAB2FB6872
:10080C0083F83C2000BF1437BD4680BC704780B5D0
:10081C0082B000AF78600B46FB701346BB707B68F0
:10082C0018687B689B88BA78194601F0AEFA7B6829
:10083C00186B7B68998EFB78DB08DBB203F0010345
:10084C00DBB21A4601F0A1FA7B68986A7B68998D35
:10085C00FB789B08DBB203F00103DBB21A4601F014
:10086C0094FA7B68186A7B68998CFB785B08DBB21E
:10087C0003F00103DBB21A4601F087FA7B68986932
:10088C007B68998BFB7803F00103DBB21A4601F00D
:10089C007CFA7B6818697B689B8A0122194601F0F7
:1008AC0074FA012000F04AF87B6818697B689B8A0F
:1008BC000022194601F069FA322000F03FF800BF1F
:1008CC000837BD4680BD80B584B000AF78600B465C
:1008DC00FB70FB781B09FB73FB7B012219467868C4
:1008EC00FFF795FFFB7803F00F03FB73FB7B0122F3
:1008FC0019467868FFF78BFF00BF1037BD4680BDE7
:10090C0080B584B000AF78600B46FB70FB781B0998
:10091C00FB73FB7B002219467868FFF778FFFB78A6
:10092C0003F00F03FB73FB7B002219467868FFF77B
:10093C006EFF00BF1037BD4680BD000080B584B08F
:10094C0000AF0346FB8001F011FE03460C4AA2FBEC
:10095C0003239B0C9BB2FA8802FB03F37B810023DD
:10096C00FB6003E000BFFB680E33FB607B89FA6819
:10097C009A42F7DB00BF00BF1037BD4680BD00BFF9
:10098C0083DE1B4380B584B000AF78600122002168
:10099C007868FFF7C4FE0023FB7306E0202178681B
:1009AC00FFF706FFFB7B0133FB737B6893F83D304D
:1009BC00FA7B9A42F2D3012200217868FFF7AFFE4E
:1009CC0000BF1037BD4680BD80B58CB000AF00F0C5
:1009DC00FBFD00F01DFB00F01BFC00F0EFFB00F03A
:1009EC0053FB00F09DFB954B954A1A60934B4FF4CB
:1009FC0080629A80914B924A1A61904B02229A82A1
:100A0C008E4B8F4A9A618D4B4FF400429A838B4BDD
:100A1C008B4A1A62894B4FF480429A84874B884ADE
:100A2C009A62864B4FF400529A85844B844A1A631F
:100A3C00824B4FF480529A860023022210217F4869
:100A4C00FFF77EFD142200217E4803F01DF97E4A3B
:100A5C0007F1240307CA83E8070007F124031846AB
:100A6C00FFF76EFB03469AB207F124014FF0FF33F8
:100A7C00764802F047FA00F0FDF9FFF769FB0346F0
:100A8C001A46734B1A70734B1B78012B40F0BA81CA
:100A9C00714B1B78012B04D100F0CEF96E4B002268
:100AAC001A7014226749694802F041FB0346002B77
:100ABC0040F0EC806949634803F0FDF80346002BD5
:100ACC0000F0E480664801F0F1FD664801F0EEFDAF
:100ADC005A48FFF7B8FD5948FFF7C1FD624957481E
:100AEC00FFF74FFE012200215448FFF718FEFFF7D5
:100AFC002FFB03461A46564B1A705C4B1B780F2B78
:100B0C0011D1574801F024FE564801F021FE002275
:100B1C004FF48071564801F038F9544B00221A708A
:100B2C0000F03AFAB2E04A4B1B78412B22D1514AE1
:100B3C0007F11C0392E8030018600433198007F1D5
:100B4C001C031846FFF7FCFA03469AB207F11C0186
:100B5C004FF0FF333D4802F0D5F9414801F0F8FD64
:100B6C0000224FF48071424801F00FF93A4B0122F8
:100B7C001A708BE0364B1B78442BB8D1384801F0F7
:100B8C00E7FD00224FF48071394801F0FEF82B4844
:100B9C00FFF759FD2948FFF762FD00F0C3F9034642
:100BAC00002B0DD134492548FFF7EBFD0122002124
:100BBC002248FFF7B4FD31492048FFF7E2FD13E06E
:100BCC002F491E48FFF7DDFD012200211B48FFF7CE
:100BDC00A6FD2C491948FFF7D4FD4FF4FA6000F03C
:100BEC0055FD1D4B01221A701B4B1B78012B23D07A
:100BFC00FFF7AEFA03461A46154B1A70144B1B78C6
:100C0C00412BF1D1204A07F1140392E8030018603C
:100C1C000433197007F114031846FFF791FA0346D1
:100C2C009AB207F114014FF0FF33084802F06AF949
:100C3C00094B01221A7000E000BF58E708010020A0
:100C4C00000C014058010020983D0008C000002015
:100C5C00480100200000002001000020503D000849
:100C6C003000002078000020583D00089001002042
:100C7C0000080140A43D0008643D0008703D0008D8
:100C8C00783D0008803D0008AC3D0008614B1B78A6
:100C9C00302B23D05F4B1B78312B1FD05D4B1B7837
:100CAC00322B1BD05B4B1B78332B17D0594B1B783B
:100CBC00342B13D0574B1B78352B0FD0554B1B783F
:100CCC00362B0BD0534B1B78372B07D0514B1B7843
:100CDC00382B03D04F4B1B78392B1CD14E4B1B7828
:100CEC00092B18D84C4B1B781A464A4B19784B4B8E
:100CFC009954494B1B780133484A0021D154464B37
:100D0C001B780133DAB2444B1A70424B1B781946EC
:100D1C004348FFF74DFD3F4B1B78442B54D100F05B
:100D2C00A9F83D4B1B780A2B4ED13E4B7B6007F14B
:100D3C00080300221A605A60C3F807203B1D37498C
:100D4C00184602F0A9FF3B237B740023BB740D23D0
:100D5C00BB743B1D1846FFF7F3F903469AB2391DD5
:100D6C004FF0FF33304802F0CDF8304801F09EFCD4
:100D7C002B48FFF768FC2A48FFF771FC2C492848E0
:100D8C00FFF7FFFC022200212548FFF7C8FC23498E
:100D9C002348FFF7F6FCFFF7DBF903461A461D4B19
:100DAC001A70244B1B78142B08D1204801F0D0FC6E
:100DBC00204B00221A7000F0EFF805E0154B1B7861
:100DCC00412BE8D100F0E8F8124B1B78412B7FF453
:100DDC0054AE114B1B78002B3FF44FAE0E4B1B78CF
:100DEC00013BDAB20C4B1A700B4B1B781A460B4BAF
:100DFC00002199540A48FFF7C5FD08490848FFF738
:100E0C00C0FC3AE6034B1B782A2B7FF436AE00F07D
:100E1C0031F832E648010020570100204C01002037
:100E2C000801002041544400C0000020780000203C
:100E3C008C3D00089001002080B500AF0B48FFF7F7
:100E4C0002FC0A48FFF70BFC09490848FFF799FC1C
:100E5C000648FFF749FC012200210448FFF75FFC1C
:100E6C000248FFF726FC00BF80BD00BF0801002030
:100E7C00B43D000880B582B000AF14230F22214985
:100E8C00214802F0C2F8214A3B4692E80300186060
:100E9C00043319703B461846FFF752F903469AB2D1
:100EAC0039464FF0FF33184802F02CF84FF47A73A0
:100EBC0014221449144802F0A8F81549114802F0FC
:100ECC00FAFE0346002B03D0124B01221A7015E0D8
:100EDC001148FFF7B8FB1048FFF7C1FB0F490E484C
:100EEC00FFF74FFC012200210B48FFF718FC0C49BF
:100EFC000948FFF746FC074B00221A7000BF083761
:100F0C00BD4680BD6C010020C0000020DC3D000807
:100F1C00BC3D00080000002008010020C03D000876
:100F2C00D03D000880B582B000AF142314221649BE
:100F3C00164802F06AF8164A3B4692E8030018601D
:100F4C00043319803B461846FFF7FAF803469AB269
:100F5C0039464FF0FF330D4801F0D4FF40F2DC531B
:100F6C0014220949094802F050F80A49064802F0CF
:100F7C00A2FE0346002B01D0012300E000231846FB
:100F8C000837BD4680BD00BF7C010020C00000209A
:100F9C00EC3D0008E43D000880B584B000AF174A72
:100FAC003B1D92E8030018600433198002330A0CCD
:100FBC001A703B1D1846FFF7C3F803469AB2391D49
:100FCC004FF0FF330E4801F09DFF0023FB6007E05C
:100FDC000C4AFB68134400221A70FB680133FB6057
:100FEC00FB68092BF4DD084B00221A70074B012219
:100FFC001A7000BF1037BD4680BD00BFF43D00081D
:10100C00C00000204C0100205701002001000020EE
:10101C0080B590B000AF07F11803282200211846C4
:10102C0002F032FE3B1D00221A605A609A60DA60B0
:10103C001A610223BB610123BB621023FB620023F4
:10104C007B6307F11803184600F0D0FE0346002B13
:10105C0001D000F07DF90F237B600023BB600023DF
:10106C00FB6000233B6100237B613B1D0021184684
:10107C0001F03EF90346002B01D000F069F900BFE6
:10108C004037BD4680BD000080B586B000AF07F18B
:10109C00080300221A605A609A60DA603B4600220C
:1010AC001A605A601D4B4FF080421A601B4B48F679
:1010BC009F425A60194B00229A60184B3222DA6018
:1010CC00164B00221A61154B80229A61134801F0CD
:1010DC009DFA0346002B01D000F03AF94FF48053EF
:1010EC00BB6007F1080319460C4801F067FC034686
:1010FC00002B01D000F02CF900233B6000237B6017
:10110C003B461946054801F03DFE0346002B01D035
:10111C0000F01EF900BF1837BD4680BD300000201E
:10112C0080B586B000AF07F1080300221A605A6040
:10113C009A60DA603B4600221A605A601D4B1E4AC8
:10114C001A601C4B42F227325A601A4B00229A60EA
:10115C00184B40F2E732DA60164B00221A61154B3D
:10116C0080229A61134801F051FA0346002B01D0FA
:10117C0000F0EEF84FF48053BB6007F108031946FA
:10118C000C4801F01BFC0346002B01D000F0E0F8EA
:10119C0000233B6000237B603B461946054801F069
:1011AC00F1FD0346002B01D000F0D2F800BF183738
:1011BC00BD4680BD780000200004004080B500AF23
:1011CC00114B124A1A60104B4FF416525A600E4BC8
:1011DC0000229A600C4B0022DA600B4B00221A6141
:1011EC00094B0C225A61084B00229A61064B0022D3
:1011FC00DA61054801F036FE0346002B01D000F001
:10120C00A7F800BF80BD00BFC00000200044004014
:10121C0080B588B000AF07F1100300221A605A6045
:10122C009A60DA60354B9B69344A43F02003936132
:10123C00324B9B6903F02003FB60FB682F4B9B69CF
:10124C002E4A43F0040393612C4B9B6903F0040377
:10125C00BB60BB68294B9B69284A43F00803936128
:10126C00264B9B6903F008037B607B6800224FF2DE
:10127C00C271234800F089FD00224FF4807121488F
:10128C0000F083FD4FF2C2733B6101237B610023AD
:10129C00BB610223FB6107F110031946184800F0EB
:1012AC00D9FB4FF480733B6101237B610023BB614D
:1012BC000223FB6107F110031946124800F0CAFB28
:1012CC004FF400433B6100237B610123BB6107F1B9
:1012DC00100319460B4800F0BDFB38233B6100237B
:1012EC007B610123BB6107F110031946044800F030
:1012FC00B1FB00BF2037BD4680BD00BF00100240CF
:10130C00000C01400008014080B582B000AF78604D
:10131C007B681B68B3F1804F04D14FF4807109488E
:10132C0000F04BFD7B681B68074A934205D1074BC5
:10133C001B780133DAB2054B1A7000BF0837BD4673
:10134C0080BD00BF00080140000400409001002057
:10135C0080B400AF72B600BFFEE7000080B485B069
:10136C0000AF154B9B69144A43F001039361124B78
:10137C009B6903F00103BB60BB680F4BDB690E4A32
:10138C0043F08053D3610C4BDB6903F080537B60DB
:10139C007B680A4B5B68FB60FB6823F0E063FB60D7
:1013AC00FB6843F00073FB60044AFB68536000BFAA
:1013BC001437BD4680BC704700100240000001404D
:1013CC0080B584B000AF78607B681B68B3F1804F48
:1013DC0014D1194BDB69184A43F00103D361164B46
:1013EC00DB6903F00103FB60FB68002200211C2079
:1013FC0000F047FA1C2000F060FA18E07B681B68CC
:10140C000E4A934213D10C4BDB690B4A43F0020397
:10141C00D361094BDB6903F00203BB60BB6800229C
:10142C0000211D2000F02DFA1D2000F046FA00BF0F
:10143C001037BD4680BD00BF0010024000040040C4
:10144C0080B588B000AF786007F1100300221A60F5
:10145C005A609A60DA607B681B681F4A934237D1E6
:10146C001E4BDB691D4A43F40033D3611B4BDB6914
:10147C0003F40033FB60FB68184B9B69174A43F07D
:10148C0004039361154B9B6903F00403BB60BB68B9
:10149C0004233B6102237B610323FB6107F11003EF
:1014AC0019460F4800F0D6FA08233B6100237B61F4
:1014BC000023BB6107F110031946094800F0CAFA72
:1014CC0000220021262000F0DCF9262000F0F5F99E
:1014DC0000BF2037BD4680BD0044004000100240D4
:1014EC000008014080B400AFFEE780B400AFFEE717
:1014FC0080B400AFFEE780B400AFFEE780B400AF6D
:10150C00FEE780B400AF00BFBD4680BC704780B41E
:10151C0000AF00BFBD4680BC704780B400AF00BFB9
:10152C00BD4680BC704780B500AF00F093F800BF9B
:10153C0080BD000080B500AF024801F037F900BF54
:10154C0080BD00BF3000002080B500AF024801F024
:10155C002DF900BF80BD00BF7800002080B500AF22
:10156C00024801F009FE00BF80BD00BFC000002092
:10157C0080B400AF00BFBD4680BC7047FFF7F8FFDA
:10158C000B480C490C4A002302E0D458C4500433D5
:10159C00C4188C42F9D3094A094C002301E01360AA
:1015AC000432A242FBD302F09DFBFFF70DFA704709
:1015BC000000002010000020303E00081000002029
:1015CC0098010020FEE7000080B500AF084B1B68B7
:1015DC00074A43F010031360032000F047F90F2073
:1015EC0000F008F8FFF7BAFE0023184680BD00BFD4
:1015FC000020024080B582B000AF7860124B1A68B0
:10160C00124B1B7819464FF47A73B3FBF1F3B2FB10
:10161C00F3F3184600F05FF90346002B01D00123C9
:10162C000EE07B680F2B0AD8002279684FF0FF3050
:10163C0000F027F9064A7B681360002300E00123C1
:10164C0018460837BD4680BD040000200C00002061
:10165C000800002080B400AF054B1B781A46054BE0
:10166C001B681344034A136000BFBD4680BC70471F
:10167C000C0000209401002080B400AF024B1B68CA
:10168C001846BD4680BC70479401002080B584B0DC
:10169C0000AF7860FFF7F0FFB8607B68FB60FB6819
:1016AC00B3F1FF3F05D00A4B1B781A46FB68134475
:1016BC00FB6000BFFFF7E0FF0246BB68D31AFA6875
:1016CC009A42F7D800BF00BF1037BD4680BD00BF9F
:1016DC000C00002080B485B000AF78607B6803F00C
:1016EC000703FB600C4BDB68BB60BA684FF6FF036B
:1016FC001340BB60FB681A02BB68134343F0BF6323
:10170C0043F40033BB60044ABB68D36000BF14379A
:10171C00BD4680BC704700BF00ED00E080B400AF58
:10172C00044BDB681B0A03F007031846BD4680BC5C
:10173C00704700BF00ED00E080B483B000AF0346FB
:10174C00FB7197F90730002B0BDBFB7903F01F02C1
:10175C00064997F907305B09012000FA02F241F8BB
:10176C00232000BF0C37BD4680BC704700E100E071
:10177C0080B483B000AF03463960FB7197F9073032
:10178C00002B0ADB3B68DAB20C4997F907301201DF
:10179C00D2B20B4483F800230AE03B68DAB2084962
:1017AC00FB7903F00F03043B1201D2B20B441A76FF
:1017BC0000BF0C37BD4680BC704700BF00E100E0A5
:1017CC0000ED00E080B489B000AFF860B9607A60D9
:1017DC00FB6803F00703FB61FB69C3F10703042BF0
:1017EC0028BF0423BB61FB690433062B02D9FB69B8
:1017FC00033B00E000237B614FF0FF32BB6902FA30
:10180C0003F3DA43BB681A407B699A404FF0FF310F
:10181C007B6901FA03F3D9437B680B4013431846E9
:10182C002437BD4680BC704780B582B000AF78606D
:10183C007B68013BB3F1807F01D301230FE00A4A9F
:10184C007B68013B53600F214FF0FF30FFF790FF97
:10185C00054B00229A60044B07221A60002318469D
:10186C000837BD4680BD00BF10E000E080B582B0F7
:10187C0000AF78607868FFF72DFF00BF0837BD46D2
:10188C0080BD80B586B000AF0346B9607A60FB734B
:10189C0000237B61FFF742FF78617A68B968786949
:1018AC00FFF790FF024697F90F3011461846FFF7E5
:1018BC005FFF00BF1837BD4680BD80B582B000AF5A
:1018CC000346FB7197F907301846FFF735FF00BF49
:1018DC000837BD4680BD80B582B000AF78607868AF
:1018EC00FFF7A2FF034618460837BD4680BD80B4FB
:1018FC0085B000AF78600023FB737B6893F82130D0
:10190C00DBB2022B08D07B6804229A637B6800222E
:10191C0083F82020012320E07B681B681A687B6811
:10192C001B6822F00E021A607B681B681A687B68C1
:10193C001B6822F001021A607B681A6C7B68DB6BF7
:10194C00012101FA02F25A607B68012283F82120FE
:10195C007B68002283F82020FB7B18461437BD4699
:10196C0080BC704780B584B000AF78600023FB73F7
:10197C007B6893F82130DBB2022B05D07B68042204
:10198C009A630123FB7351E07B681B681A687B68C0
:10199C001B6822F00E021A607B681B681A687B6851
:1019AC001B6822F001021A607B681B68224A934272
:1019BC0029D07B681B68214A934222D07B681B6824
:1019CC001F4A93421AD07B681B681E4A934212D05E
:1019DC007B681B681C4A93420AD07B681B681B4AB5
:1019EC00934202D14FF480130EE04FF080730BE062
:1019FC004FF4803308E04FF4805305E04FF48073CC
:101A0C0002E0102300E00123114A53607B6801229D
:101A1C0083F821207B68002283F820207B685B6B95
:101A2C00002B03D07B685B6B78689847FB7B184670
:101A3C001037BD4680BD00BF080002401C000240AC
:101A4C003000024044000240580002406C0002404A
:101A5C000000024080B48BB000AF78603960002386
:101A6C007B6200233B6269E101227B6A02FA03F389
:101A7C00FB613B681B68FA691340BB61BA69FB697F
:101A8C009A4240F058813B685B689A4A93425ED018
:101A9C00984A934275D8984A934258D0964A9342A2
:101AAC006FD8964A934252D0944A934269D8944A3A
:101ABC0093424CD0924A934263D8924A934246D076
:101ACC00904A93425DD8122B2AD8122B59D801A2D6
:101ADC0052F823F05B1B0008351B0008471B00085D
:101AEC00891B00088F1B00088F1B00088F1B000828
:101AFC008F1B00088F1B00088F1B00088F1B000812
:101B0C008F1B00088F1B00088F1B00088F1B000801
:101B1C008F1B00088F1B00083D1B0008511B000881
:101B2C00794A934213D02CE03B68DB683B6229E096
:101B3C003B68DB6804333B6224E03B68DB680833BA
:101B4C003B621FE03B68DB680C333B621AE03B688E
:101B5C009B68002B02D104233B6213E03B689B681B
:101B6C00012B05D108233B627B68FA691A6109E0F5
:101B7C0008233B627B68FA695A6103E000233B62ED
:101B8C0000E000BFBB69FF2B01D87B6801E07B68DC
:101B9C0004337B61BB69FF2B02D87B6A9B0002E09C
:101BAC007B6A083B9B003B617B691A680F213B6990
:101BBC0001FA03F3DB431A40396A3B6901FA03F378
:101BCC001A437B691A603B685B6803F08053002BF7
:101BDC0000F0B1804D4B9B694C4A43F0010393617B
:101BEC004A4B9B6903F00103BB60BB68484A7B6AA4
:101BFC009B08023352F82330FB607B6A03F003032B
:101C0C009B000F2202FA03F3DB43FA681340FB60DC
:101C1C007B68404A934213D07B683F4A93420DD075
:101C2C007B683E4A934207D07B683D4A934201D180
:101C3C00032306E0042304E0022302E0012300E076
:101C4C0000237A6A02F0030292009340FA6813436D
:101C5C00FB602F497B6A9B080233FA6841F823200A
:101C6C003B685B6803F48013002B06D02D4B9A68FD
:101C7C002C49BB6913438B6006E02A4B9A68BB69FD
:101C8C00DB43284913408B603B685B6803F400130B
:101C9C00002B06D0234BDA682249BB691343CB6077
:101CAC0006E0204BDA68BB69DB431E491340CB606E
:101CBC003B685B6803F40033002B06D0194B5A6861
:101CCC001849BB6913434B6006E0164B5A68BB6955
:101CDC00DB43144913404B603B685B6803F480336F
:101CEC00002B21D00F4B1A680E49BB6913430B60B4
:101CFC0021E000BF00003210000031100000221063
:101D0C000000211000001210000011100010024001
:101D1C000000014000080140000C0140001001408F
:101D2C0000140140000401400B4B1A68BB69DB43F3
:101D3C00094913400B607B6A01337B623B681A686C
:101D4C007B6A22FA03F3002B7FF48EAE00BF00BF38
:101D5C002C37BD4680BC70470004014080B485B070
:101D6C0000AF78600B467B807B689A687B88134059
:101D7C00002B02D00123FB7301E00023FB73FB7BE0
:101D8C0018461437BD4680BC704780B483B000AF92
:101D9C0078600B467B8013467B707B78002B03D0DE
:101DAC007A887B681A6103E07B881A047B681A6165
:101DBC0000BF0C37BD4680BC704780B485B000AF07
:101DCC0078600B467B807B68DB68FB607A88FB68FD
:101DDC0013401A04FB68D9437B880B401A437B6879
:101DEC001A6100BF1437BD4680BC704780B586B001
:101DFC0000AF78607B68002B01D1012372E27B6815
:101E0C001B6803F00103002B00F08780924B5B688A
:101E1C0003F00C03042B0CD08F4B5B6803F00C030A
:101E2C00082B12D18C4B5B6803F48033B3F5803FE5
:101E3C000BD1894B1B6803F40033002B6CD07B68EF
:101E4C005B68002B68D101234CE27B685B68B3F5BF
:101E5C00803F06D1804B1B687F4A43F4803313606C
:101E6C002EE07B685B68002B0CD17B4B1B687A4A9D
:101E7C0023F480331360784B1B68774A23F4802358
:101E8C0013601DE07B685B68B3F5A02F0CD1724B1F
:101E9C001B68714A43F4802313606F4B1B686E4AB6
:101EAC0043F4803313600BE06B4B1B686A4A23F4DA
:101EBC0080331360684B1B68674A23F480231360DC
:101ECC007B685B68002B13D0FFF7D6FB386108E00A
:101EDC00FFF7D2FB02463B69D31A642B01D90323CB
:101EEC0000E25D4B1B6803F40033002BF0D014E0D0
:101EFC00FFF7C2FB386108E0FFF7BEFB02463B6907
:101F0C00D31A642B01D90323ECE1534B1B6803F464
:101F1C000033002BF0D100E000BF7B681B6803F09E
:101F2C000203002B63D04C4B5B6803F00C03002BBB
:101F3C000BD0494B5B6803F00C03082B1CD1464BB0
:101F4C005B6803F48033002B16D1434B1B6803F002
:101F5C000203002B05D07B681B69012B01D00123E8
:101F6C00C0E13D4B1B6823F0F8027B685B69DB002A
:101F7C00394913430B603AE07B681B69002B20D076
:101F8C00364B01221A60FFF777FB386108E0FFF748
:101F9C0073FB02463B69D31A022B01D90323A1E13F
:101FAC002D4B1B6803F00203002BF0D02A4B1B684F
:101FBC0023F0F8027B685B69DB00274913430B6055
:101FCC0015E0264B00221A60FFF756FB386108E03B
:101FDC00FFF752FB02463B69D31A022B01D90323AC
:101FEC0080E11D4B1B6803F00203002BF0D17B68D2
:101FFC001B6803F00803002B3AD07B689B69002B0D
:10200C0019D0174B01221A60FFF736FB386108E034
:10201C00FFF732FB02463B69D31A022B01D903238B
:10202C0060E10D4B5B6A03F00203002BF0D0012042
:10203C0000F0CEFA1CE00A4B00221A60FFF71CFBE2
:10204C0038610FE0FFF718FB02463B69D31A022BED
:10205C0008D9032346E100BF0010024000004242B1
:10206C0080044242924B5B6A03F00203002BE9D1DD
:10207C007B681B6803F00403002B00F0A680002390
:10208C00FB758B4BDB6903F08053002B0DD1884B18
:10209C00DB69874A43F08053D361854BDB6903F0DE
:1020AC008053BB60BB680123FB75824B1B6803F438
:1020BC008073002B18D17F4B1B687E4A43F48073CE
:1020CC001360FFF7D9FA386108E0FFF7D5FA02463A
:1020DC003B69D31A642B01D9032303E1754B1B68AD
:1020EC0003F48073002BF0D07B68DB68012B06D1E6
:1020FC006F4B1B6A6E4A43F0010313622DE07B6841
:10210C00DB68002B0CD16A4B1B6A694A23F0010374
:10211C001362674B1B6A664A23F0040313621CE0CC
:10212C007B68DB68052B0CD1614B1B6A604A43F062
:10213C00040313625E4B1B6A5D4A43F00103136296
:10214C000BE05B4B1B6A5A4A23F001031362584B9A
:10215C001B6A574A23F0040313627B68DB68002B6D
:10216C0015D0FFF789FA38610AE0FFF785FA0246C5
:10217C003B69D31A41F28832934201D90323B1E06F
:10218C004B4B1B6A03F00203002BEED014E0FFF75D
:10219C0073FA38610AE0FFF76FFA02463B69D31A0B
:1021AC0041F28832934201D903239BE0404B1B6AD6
:1021BC0003F00203002BEED1FB7D012B05D13C4B30
:1021CC00DB693B4A23F08053D3617B68DB69002BCE
:1021DC0000F08780364B5B6803F00C03082B61D052
:1021EC007B68DB69022B46D1334B00221A60FFF768
:1021FC0043FA386108E0FFF73FFA02463B69D31A0D
:10220C00022B01D903236DE0294B1B6803F00073EB
:10221C00002BF0D17B681B6AB3F5803F08D1244BAF
:10222C005B6823F400327B689B68214913434B6045
:10223C001F4B5B6823F474127B68196A7B685B6ABA
:10224C000B431B4913434B601B4B01221A60FFF7D6
:10225C0013FA386108E0FFF70FFA02463B69D31A0C
:10226C00022B01D903233DE0114B1B6803F00073D3
:10227C00002BF0D035E0104B00221A60FFF7FCF970
:10228C00386108E0FFF7F8F902463B69D31A022BD4
:10229C0001D9032326E0064B1B6803F00073002BC7
:1022AC00F0D11EE07B68DB69012B07D1012319E01B
:1022BC000010024000700040600042420B4B5B6813
:1022CC00FB60FB6803F480327B681B6A9A4206D180
:1022DC00FB6803F470127B685B6A9A4201D001239D
:1022EC0000E0002318461837BD4680BD00100240A0
:1022FC0080B584B000AF786039607B68002B01D169
:10230C000123D0E06A4B1B6803F007033A689A423A
:10231C0010D9674B1B6823F0070265493B681343D0
:10232C000B60634B1B6803F007033A689A4201D0B9
:10233C000123B8E07B681B6803F00203002B20D05C
:10234C007B681B6803F00403002B05D0594B5B68BA
:10235C00584A43F4E06353607B681B6803F008033E
:10236C00002B05D0534B5B68524A43F460535360C7
:10237C00504B5B6823F0F0027B689B684D4913431C
:10238C004B607B681B6803F00103002B40D07B681B
:10239C005B68012B07D1474B1B6803F40033002B00
:1023AC0015D101237FE07B685B68022B07D1414B81
:1023BC001B6803F00073002B09D1012373E03D4B24
:1023CC001B6803F00203002B01D101236BE0394B96
:1023DC005B6823F003027B685B68364913434B60F0
:1023EC00FFF74AF9F8600AE0FFF746F90246FB6886
:1023FC00D31A41F28832934201D9032353E02D4B77
:10240C005B6803F00C027B685B689B009A42EBD123
:10241C00274B1B6803F007033A689A4210D2244BEF
:10242C001B6823F0070222493B6813430B60204BC7
:10243C001B6803F007033A689A4201D0012332E08B
:10244C007B681B6803F00403002B08D0194B5B68F6
:10245C0023F4E0627B68DB68164913434B607B68AE
:10246C001B6803F00803002B09D0124B5B6823F4A4
:10247C0060527B681B69DB000E4913434B6000F014
:10248C0021F802460B4B5B681B0903F00F030A494A
:10249C00CB5C22FA03F3094A1360094B1B681846FC
:1024AC00FFF7A8F8002318461037BD4680BD00BFC3
:1024BC000020024000100240FC3D000804000020F7
:1024CC000800002080B487B000AF0023FB6000231D
:1024DC00BB6000237B6100237B6000233B611E4BB0
:1024EC005B68FB60FB6803F00C03042B02D0082B29
:1024FC0003D027E0194B3B6127E0FB689B0C03F0F2
:10250C000F03174AD35C7B60FB6803F48033002B0A
:10251C0010D0114B5B685B0C03F00103114AD35CC8
:10252C00BB607B680D4A03FB02F2BB68B2FBF3F3A2
:10253C007B6104E07B680C4A02FB03F37B617B69E3
:10254C003B6102E0054B3B6100BF3B6918461C3701
:10255C00BD4680BC704700BF0010024000127A00DC
:10256C00143E0008243E000800093D0080B400AF72
:10257C00024B1B681846BD4680BC70470400002007
:10258C0080B500AFFFF7F2FF0246054B5B681B0AF4
:10259C0003F007030349CB5C22FA03F3184680BD12
:1025AC00001002400C3E000880B500AFFFF7DEFFC4
:1025BC000246054B5B68DB0A03F007030349CB5C5F
:1025CC0022FA03F3184680BD001002400C3E0008AE
:1025DC0080B485B000AF78600A4B1B680A4AA2FB36
:1025EC0003235B0A7A6802FB03F3FB6000BFFB6802
:1025FC005A1EFA60002BF9D100BF00BF1437BD463C
:10260C0080BC704704000020D34D621080B582B0AE
:10261C0000AF78607B68002B01D1012341E07B681F
:10262C0093F83D30DBB2002B06D17B68002283F897
:10263C003C207868FEF7C4FE7B68022283F83D20BC
:10264C007B681A687B6804331946104600F0A2FABE
:10265C007B68012283F846207B68012283F83E20A8
:10266C007B68012283F83F207B68012283F840209D
:10267C007B68012283F841207B68012283F8422089
:10268C007B68012283F843207B68012283F8442075
:10269C007B68012283F845207B68012283F83D206A
:1026AC00002318460837BD4680BD000080B485B0B5
:1026BC0000AF78607B6893F83D30DBB2012B01D022
:1026CC0001233AE07B68022283F83D207B681B687B
:1026DC00DA687B681B6842F00102DA607B681B6871
:1026EC00184A93420ED07B681B68B3F1804F09D017
:1026FC007B681B68144A934204D07B681B68134A9E
:10270C00934211D17B681B689B6803F00703FB6045
:10271C00FB68062B10D07B681B681A687B681B68EB
:10272C0042F001021A6007E07B681B681A687B683C
:10273C001B6842F001021A60002318461437BD468C
:10274C0080BC7047002C0140000400400008004091
:10275C0080B483B000AF78607B681B68DA687B68F4
:10276C001B6822F00102DA607B681B681A6A41F26E
:10277C0011131340002B0FD17B681B681A6A40F2AF
:10278C0044431340002B07D17B681B681A687B6895
:10279C001B6822F001021A607B68012283F83D203D
:1027AC00002318460C37BD4680BC704780B582B0FC
:1027BC0000AF78607B681B681B6903F00203022B77
:1027CC0022D17B681B68DB6803F00203022B1BD150
:1027DC007B681B686FF002021A617B6801221A7712
:1027EC007B681B689B6903F00303002B03D078689C
:1027FC0000F0B4F905E0786800F0A7F9786800F00B
:10280C00B6F97B6800221A777B681B681B6903F09A
:10281C000403042B22D17B681B68DB6803F00403E0
:10282C00042B1BD17B681B686FF004021A617B6858
:10283C0002221A777B681B689B6903F44073002B98
:10284C0003D0786800F08AF905E0786800F07DF92B
:10285C00786800F08CF97B6800221A777B681B681B
:10286C001B6903F00803082B22D17B681B68DB680B
:10287C0003F00803082B1BD17B681B686FF0080260
:10288C001A617B6804221A777B681B68DB6903F08A
:10289C000303002B03D0786800F060F905E078683A
:1028AC0000F053F9786800F062F97B6800221A771F
:1028BC007B681B681B6903F01003102B22D17B680B
:1028CC001B68DB6803F01003102B1BD17B681B68A3
:1028DC006FF010021A617B6808221A777B681B68FC
:1028EC00DB6903F44073002B03D0786800F036F9F1
:1028FC0005E0786800F029F9786800F038F97B6811
:10290C0000221A777B681B681B6903F00103012BFB
:10291C000ED17B681B68DB6803F00103012B07D128
:10292C007B681B686FF001021A617868FEF7ECFC9B
:10293C007B681B681B6903F08003802B0ED17B68BE
:10294C001B68DB6803F08003802B07D17B681B6856
:10295C006FF080021A61786800F07BFA7B681B6864
:10296C001B6903F04003402B0ED17B681B68DB68AE
:10297C0003F04003402B07D17B681B686FF04002CB
:10298C001A61786800F0FCF87B681B681B6903F01F
:10299C002003202B0ED17B681B68DB6803F020031F
:1029AC00202B07D17B681B686FF020021A617868B6
:1029BC0000F046FA00BF0837BD4680BD80B584B034
:1029CC0000AF786039600023FB737B6893F83C3070
:1029DC00012B01D10223B4E07B68012283F83C2057
:1029EC007B68022283F83D207B681B689B68BB6078
:1029FC00BB6823F07703BB60BB6823F47F43BB60E9
:102A0C007B681B68BA689A603B681B68B3F5005F0B
:102A1C003ED0B3F5005F00F28780B3F5805F00F025
:102A2C008680B3F5805F7FD8702B1AD0702B7BD843
:102A3C00602B50D0602B77D8502B3CD0502B73D8B8
:102A4C00402B58D0402B6FD8302B64D0302B6BD808
:102A5C00202B60D0202B67D8002B5CD0102B5AD0A9
:102A6C0062E07B6818683B6899683B685A683B6809
:102A7C00DB6800F068F97B681B689B68BB60BB680F
:102A8C0043F07703BB607B681B68BA689A604FE0C1
:102A9C007B6818683B6899683B685A683B68DB68D8
:102AAC0000F051F97B681B689A687B681B6842F4DC
:102ABC0080429A603CE07B6818683B6859683B68C8
:102ACC00DB681A4600F0C8F87B681B685021184672
:102ADC0000F01FF92CE07B6818683B6859683B686C
:102AEC00DB681A4600F0E6F87B681B686021184624
:102AFC0000F00FF91CE07B6818683B6859683B686C
:102B0C00DB681A4600F0A8F87B681B684021184661
:102B1C0000F0FFF80CE07B681A683B681B681946EC
:102B2C00104600F0F6F803E00123FB7300E000BF51
:102B3C007B68012283F83D207B68002283F83C20CF
:102B4C00FB7B18461037BD4680BD80B483B000AF08
:102B5C00786000BF0C37BD4680BC704780B483B032
:102B6C0000AF786000BF0C37BD4680BC704780B4A6
:102B7C0083B000AF786000BF0C37BD4680BC704797
:102B8C0080B483B000AF786000BF0C37BD4680BC0A
:102B9C007047000080B485B000AF786039607B6806
:102BAC001B68FB607B68294A93420BD07B68B3F1AE
:102BBC00804F07D07B68264A934203D07B68254A16
:102BCC00934208D1FB6823F07003FB603B685B68A1
:102BDC00FA681343FB607B681C4A93420BD07B68FA
:102BEC00B3F1804F07D07B68194A934203D07B68BE
:102BFC00184A934208D1FB6823F44073FB603B688E
:102C0C00DB68FA681343FB60FB6823F080023B68C7
:102C1C005B691343FB607B68FA681A603B689A68CF
:102C2C007B68DA623B681A687B689A627B68074A41
:102C3C00934203D13B681A697B681A637B68012253
:102C4C005A6100BF1437BD4680BC7047002C014050
:102C5C00000400400008004080B487B000AFF8606A
:102C6C00B9607A60FB681B6A7B61FB681B6A23F0A6
:102C7C000102FB681A62FB689B693B613B6923F0AC
:102C8C00F0033B617B681B013A6913433B617B6931
:102C9C0023F00A037B617A69BB6813437B61FB6891
:102CAC003A699A61FB687A691A6200BF1C37BD46A3
:102CBC0080BC704780B487B000AFF860B9607A60B0
:102CCC00FB681B6A7B61FB681B6A23F01002FB68C4
:102CDC001A62FB689B693B613B6923F470433B615F
:102CEC007B681B033A6913433B617B6923F0A003A8
:102CFC007B61BB681B017A6913437B61FB683A6992
:102D0C009A61FB687A691A6200BF1C37BD4680BCA9
:102D1C00704780B485B000AF786039607B689B6881
:102D2C00FB60FB6823F07003FB603A68FB6813439D
:102D3C0043F00703FB607B68FA689A6000BF1437A6
:102D4C00BD4680BC704780B487B000AFF860B960F6
:102D5C007A603B60FB689B687B617B6923F47F43F3
:102D6C007B613B681A027B681A43BB6813437A6920
:102D7C0013437B61FB687A699A6000BF1C37BD46C0
:102D8C0080BC704780B485B000AF786039607B68D8
:102D9C0093F83C30012B01D1022346E07B680122E1
:102DAC0083F83C207B68022283F83D207B681B68FB
:102DBC005B68FB607B681B689B68BB60FB6823F0EF
:102DCC007003FB603B681B68FA681343FB607B680D
:102DDC001B68FA685A607B681B68164A93420ED0CF
:102DEC007B681B68B3F1804F09D07B681B68124A63
:102DFC00934204D07B681B68104A93420CD1BB6889
:102E0C0023F08003BB603B685B68BA681343BB600C
:102E1C007B681B68BA689A607B68012283F83D2046
:102E2C007B68002283F83C20002318461437BD46EB
:102E3C0080BC7047002C014000040040000800409A
:102E4C0080B483B000AF786000BF0C37BD4680BC47
:102E5C00704780B483B000AF786000BF0C37BD46BC
:102E6C0080BC704780B582B000AF78607B68002B67
:102E7C0001D1012342E07B6893F84130DBB2002B97
:102E8C0006D17B68002283F840207868FEF7D8FAD8
:102E9C007B68242283F841207B681B68DA687B6896
:102EAC001B6822F40052DA60786800F05FFE7B68E1
:102EBC001B681A697B681B6822F490421A617B6854
:102ECC001B685A697B681B6822F02A025A617B686E
:102EDC001B68DA687B681B6842F40052DA607B6816
:102EEC0000225A647B68202283F841207B682022D0
:102EFC0083F842207B6800225A6300231846083767
:102F0C00BD4680BD80B58AB002AFF860B9603B6049
:102F1C001346FB8000237B61FB6893F84130DBB2E6
:102F2C00202B6DD1BB68002B02D0FB88002B01D16C
:102F3C00012366E0FB6800225A64FB68212283F8B7
:102F4C004120FEF799FB7861FB68FA889A84FB684C
:102F5C00FA88DA84FB689B68B3F5805F08D1FB685C
:102F6C001B69002B04D10023FB61BB68BB6103E030
:102F7C00BB68FB610023BB612AE03B6800937B6963
:102F8C0000228021F86800F0AFFB0346002B01D033
:102F9C00032336E0FB69002B0BD1BB691B881A4657
:102FAC00FB681B68C2F308025A60BB690233BB6141
:102FBC0007E0FB691A78FB681B685A60FB690133F0
:102FCC00FB61FB68DB8C9BB2013B9AB2FB68DA8439
:102FDC00FB68DB8C9BB2002BCFD13B6800937B69E9
:102FEC0000224021F86800F07FFB0346002B01D043
:102FFC00032306E0FB68202283F84120002300E035
:10300C00022318462037BD4680BD80B58AB002AF7A
:10301C00F860B9603B601346FB8000237B61FB6862
:10302C0093F84230DBB2202B7CD1BB68002B02D052
:10303C00FB88002B01D1012375E0FB6800225A6448
:10304C00FB68222283F84220FB6800221A63FEF7F9
:10305C0013FB7861FB68FA889A85FB68FA88DA8535
:10306C00FB689B68B3F5805F08D1FB681B69002B7C
:10307C0004D10023FB61BB68BB6103E0BB68FB614F
:10308C000023BB6143E03B6800937B690022202155
:10309C00F86800F029FB0346002B01D0032342E023
:1030AC00FB69002B0CD1FB681B685B689BB2C3F3FC
:1030BC0008039AB2BB691A80BB690233BB611FE07B
:1030CC00FB689B68B3F5805F07D0FB689B68002B9F
:1030DC000AD1FB681B69002B06D1FB681B685B6877
:1030EC00DAB2FB691A7008E0FB681B685B68DBB23C
:1030FC0003F07F03DAB2FB691A70FB690133FB61E1
:10310C00FB68DB8D9BB2013B9AB2FB68DA85FB68EE
:10311C00DB8D9BB2002BB6D1FB68202283F84220BA
:10312C00002300E0022318462037BD4680BD80B541
:10313C0084B000AFF860B9601346FB80FB6893F86D
:10314C004230DBB2202B12D1BB68002B02D0FB88A3
:10315C00002B01D101230BE0FB6800221A63FB88D2
:10316C001A46B968F86800F02DFB034600E002230C
:10317C0018461037BD4680BD80B5BAB000AF786038
:10318C007B681B681B68C7F8E4307B681B68DB68CE
:10319C00C7F8E0307B681B685B69C7F8DC3000233C
:1031AC00C7F8D8300023C7F8D430D7F8E43003F090
:1031BC000F03C7F8D830D7F8D830002B0FD1D7F879
:1031CC00E43003F02003002B09D0D7F8E03003F0F3
:1031DC002003002B03D0786800F00AFC5BE2D7F8E0
:1031EC00D830002B00F0DE80D7F8DC3003F0010380
:1031FC00002B06D1D7F8E03003F49073002B00F0CD
:10320C00D180D7F8E43003F00103002B0BD0D7F8B2
:10321C00E03003F48073002B05D07B685B6C43F0CB
:10322C0001027B685A64D7F8E43003F00403002BE6
:10323C000BD0D7F8DC3003F00103002B05D07B68F2
:10324C005B6C43F002027B685A64D7F8E43003F0FD
:10325C000203002B0BD0D7F8DC3003F00103002B5A
:10326C0005D07B685B6C43F004027B685A64D7F82A
:10327C00E43003F00803002B11D0D7F8E03003F052
:10328C002003002B05D1D7F8DC3003F00103002B11
:10329C0005D07B685B6C43F008027B685A647B68E2
:1032AC005B6C002B00F0F281D7F8E43003F02003C4
:1032BC00002B08D0D7F8E03003F02003002B02D00D
:1032CC00786800F095FB7B681B685B6903F0400332
:1032DC00002B14BF01230023DBB2C7F8D4307B686A
:1032EC005B6C03F00803002B03D1D7F8D430002B10
:1032FC004FD0786800F09FFA7B681B685B6903F01D
:10330C004003002B41D07B681B681433C7F89C30FA
:10331C00D7F89C3053E8003FC7F89830D7F898306E
:10332C0023F04003C7F8D0307B681B681433D7F800
:10333C00D020C7F8A820C7F8A430D7F8A410D7F825
:10334C00A82041E80023C7F8A030D7F8A030002B04
:10335C00D9D17B68DB6B002B13D07B68DB6B7E4A8F
:10336C005A637B68DB6B1846FEF7FCFA0346002BAE
:10337C0016D07B68DB6B5B6B7A68D26B1046984718
:10338C000EE0786800F09CF90AE0786800F098F993
:10339C0006E0786800F094F97B6800225A6475E1C5
:1033AC0000BF73E17B681B6B012B40F04F81D7F89A
:1033BC00E43003F01003002B00F04881D7F8E03024
:1033CC0003F01003002B00F041810023BB607B68ED
:1033DC001B681B68BB607B681B685B68BB60BB6859
:1033EC007B681B685B6903F04003002B00F0B68020
:1033FC007B68DB6B1B685B68A7F8BE30B7F8BE3028
:10340C00002B00F045817B689B8DB7F8BE209A425B
:10341C0080F03E817B68B7F8BE20DA857B68DB6B79
:10342C009B69202B00F088807B681B680C33C7F8E5
:10343C008830D7F8883053E8003FC7F88430D7F885
:10344C00843023F48073C7F8B8307B681B680C3366
:10345C00D7F8B820C7F89420C7F89030D7F8901058
:10346C00D7F8942041E80023C7F88C30D7F88C307B
:10347C00002BD9D17B681B6814337B677B6F53E8B7
:10348C00003F3B673B6F23F00103C7F8B4307B6808
:10349C001B681433D7F8B420C7F88020FB67F96F8A
:1034AC00D7F8802041E80023BB67BB6F002BE1D12C
:1034BC007B681B6814333B663B6E53E8003FFB652F
:1034CC00FB6D23F04003C7F8B0307B681B681433E6
:1034DC00D7F8B020FA66BB66B96EFA6E41E80023E5
:1034EC007B667B6E002BE3D17B68202283F8422025
:1034FC007B6800221A637B681B680C33FB64FB6CD3
:10350C0053E8003FBB64BB6C23F01003C7F8AC302E
:10351C007B681B680C33D7F8AC20BA657B65796D7A
:10352C00BA6D41E800233B653B6D002BE3D17B6812
:10353C00DB6B1846FEF7DBF97B6802225A637B686B
:10354C009A8D7B68DB8D9BB2D31A9BB21946786837
:10355C0000F0BFF89CE000BF073900087B689A8D2B
:10356C007B68DB8D9BB2D31AA7F8CE307B68DB8DE2
:10357C009BB2002B00F08E80B7F8CE30002B00F001
:10358C0089807B681B680C33BB63BB6B53E8003FC3
:10359C007B637B6B23F49073C7F8C8307B681B6824
:1035AC000C33D7F8C8207A643B64396C7A6C41E8E8
:1035BC000023FB63FB6B002BE3D17B681B6814338C
:1035CC007B627B6A53E8003F3B623B6A23F001035A
:1035DC00C7F8C4307B681B681433D7F8C4203A632F
:1035EC00FB62F96A3A6B41E80023BB62BB6A002BB1
:1035FC00E3D17B68202283F842207B6800221A6387
:10360C007B681B680C333B613B6953E8003FFB60F4
:10361C00FB6823F01003C7F8C0307B681B680C33C1
:10362C00D7F8C020FA61BB61B969FA6941E8002397
:10363C007B617B69002BE3D17B6802225A63B7F86C
:10364C00CE301946786800F044F823E0D7F8E4301F
:10365C0003F08003002B09D0D7F8E03003F080038F
:10366C00002B03D0786800F05CF914E0D7F8E43054
:10367C0003F04003002B0ED0D7F8E03003F04003EA
:10368C00002B08D0786800F09BF904E000BF02E042
:10369C0000BF00E000BFE837BD4680BD80B483B0FA
:1036AC0000AF786000BF0C37BD4680BC704780B45B
:1036BC0083B000AF786000BF0C37BD4680BC70474C
:1036CC0080B483B000AF786000BF0C37BD4680BCBF
:1036DC00704780B483B000AF78600B467B8000BF2E
:1036EC000C37BD4680BC704780B590B000AFF86019
:1036FC00B9603B601346FB7150E0BB6CB3F1FF3F0C
:10370C004CD0BB6C002B07D0FDF7B6FF02463B68D4
:10371C00D31ABA6C9A4241D2FB681B680C33BB6259
:10372C00BB6A53E8003F7B627B6A23F4D073FB6374
:10373C00FB681B680C33FA6B7A633B63396B7A6BEF
:10374C0041E80023FB62FB6A002BE5D1FB681B6898
:10375C0014337B617B6953E8003F3B613B6923F089
:10376C000103BB63FB681B681433BA6B3A62FB61E1
:10377C00F9693A6A41E80023BB61BB69002BE5D1CA
:10378C00FB68202283F84120FB68202283F842202A
:10379C00FB68002283F8402003230FE0FB681B68C2
:1037AC001A68BB681340BA689A420CBF0123002305
:1037BC00DBB21A46FB799A429FD000231846403759
:1037CC00BD4680BD80B485B000AFF860B9601346CB
:1037DC00FB80FB68BA689A62FB68FA889A85FB687A
:1037EC00FA88DA85FB6800225A64FB68222283F887
:1037FC004220FB681B69002B07D0FB681B68DA684A
:10380C00FB681B6842F48072DA60FB681B685A69BB
:10381C00FB681B6842F001025A61FB681B68DA689E
:10382C00FB681B6842F02002DA600023184614374C
:10383C00BD4680BC704780B495B000AF78607B68A3
:10384C001B680C337B637B6B53E8003F3B633B6B28
:10385C0023F49073FB647B681B680C33FA6C3A643A
:10386C00FB63F96B3A6C41E80023BB63BB6B002B29
:10387C00E5D17B681B6814333B623B6A53E8003F1D
:10388C00FB61FB6923F00103BB647B681B68143389
:10389C00BA6CFA62BB62B96AFA6A41E800237B62CD
:1038AC007B6A002BE5D17B681B6B012B19D17B68E4
:1038BC001B680C33FB60FB6853E8003FBB60BB68C4
:1038CC0023F010037B647B681B680C337A6CBA6141
:1038DC007B617969BA6941E800233B613B69002B44
:1038EC00E5D17B68202283F842207B6800221A6392
:1038FC0000BF5437BD4680BC704780B584B000AF64
:10390C0078607B685B6AFB60FB680022DA85FB6889
:10391C000022DA84F868FFF7D3FE00BF1037BD46EB
:10392C0080BD80B485B000AF78607B6893F841307F
:10393C00DBB2212B3ED17B689B68B3F5805F14D141
:10394C007B681B69002B10D17B681B6AFB60FB68D2
:10395C001B881A467B681B68C2F308025A607B6896
:10396C001B6A9A1C7B681A6208E07B681B6A591CEC
:10397C007A6811621A787B681B685A607B68DB8CEA
:10398C009BB2013B9BB27A681946D184002B0FD1B4
:10399C007B681B68DA687B681B6822F08002DA603F
:1039AC007B681B68DA687B681B6842F04002DA604F
:1039BC00002300E0022318461437BD4680BC704734
:1039CC0080B582B000AF78607B681B68DA687B6872
:1039DC001B6822F04002DA607B68202283F84120C9
:1039EC007868FFF75BFE002318460837BD4680BD9C
:1039FC0080B58CB000AF78607B6893F84230DBB256
:103A0C00222B40F0AE807B689B68B3F5805F17D1AA
:103A1C007B681B69002B13D10023FB627B689B6ABC
:103A2C00BB627B681B685B689BB2C3F308039AB2EA
:103A3C00BB6A1A807B689B6A9A1C7B689A6226E038
:103A4C007B689B6AFB620023BB627B689B68B3F557
:103A5C00805F07D07B689B68002B0AD17B681B6951
:103A6C00002B06D17B681B685B68DAB2FB6A1A70A4
:103A7C0008E07B681B685B68DBB203F07F03DAB29B
:103A8C00FB6A1A707B689B6A5A1C7B689A627B681B
:103A9C00DB8D9BB2013B9BB27A681946D185002B1A
:103AAC005DD17B681B68DA687B681B6822F020029A
:103ABC00DA607B681B68DA687B681B6822F48072AA
:103ACC00DA607B681B685A697B681B6822F001020C
:103ADC005A617B68202283F842207B6800225A635B
:103AEC007B681B6B012B35D17B6800221A637B68CA
:103AFC001B680C337B617B6953E8003F3B613B697E
:103B0C0023F010037B627B681B680C337A6A3A6281
:103B1C00FB61F9693A6A41E80023BB61BB69002B80
:103B2C00E5D17B681B681B6803F01003102B0AD1CE
:103B3C000023FB607B681B681B68FB607B681B6851
:103B4C005B68FB60FB687B689B8D19467868FFF7A8
:103B5C00C0FD02E07868FFF7AAFD002302E0002315
:103B6C0000E0022318463037BD4680BD80B584B0D6
:103B7C0000AF78607B681B681B6923F440517B683D
:103B8C00DA687B681B680A431A617B689A687B68F1
:103B9C001B691A437B685B691343BB607B681B68BA
:103BAC00DB6823F4B05323F00C037A681268B9680D
:103BBC000B43D3607B681B685B6923F440717B68A3
:103BCC009A697B681B680A435A617B681B682C4A9C
:103BDC00934203D1FEF7E8FCF86002E0FEF7D0FC5C
:103BEC00F860FA6813469B0013449A001A447B68E9
:103BFC005B689B00B2FBF3F3224AA2FB03235B0935
:103C0C001901FA6813469B0013449A001A447B6806
:103C1C005B689B00B2FBF3F21A4BA3FB02035B093C
:103C2C00642000FB03F3D31A1B013233154AA2FBA9
:103C3C0003235B0903F0F0031944FA6813469B0055
:103C4C0013449A001A447B685B689B00B2FBF3F246
:103C5C000C4BA3FB02035B09642000FB03F3D31A98
:103C6C001B013233074AA2FB03235B0903F00F024B
:103C7C007B681B680A449A6000BF1037BD4680BD44
:103C8C00003801401F85EB5103460244934200D19A
:103C9C00704703F8011BF9E7024610B51478134678
:103CAC000132002CFAD1013B11F8012B03F8012F42
:103CBC00002AF9D110BD0A7870B56AB970BD9A4264
:103CCC0009D10C46054614F8013F002BF6D015F827
:103CDC00016F9E42F7D001300378002BEFD11846CC
:103CEC00ECE7000070B500260C4D0D4C641BA410C5
:103CFC00A64209D100F01AF800260A4D0A4C641BA2
:103D0C00A410A64205D170BD55F8043B9847013666
:103D1C00EEE755F8043B98470136F2E7283E0008D9
:103D2C00283E0008283E00082C3E0008F8B500BFCD
:103D3C00F8BC08BC9E467047F8B500BFF8BC08BC80
:043D4C009E467047D8
:103D50002B434C49503A00004C6C616D6164612109
:103D6000212100004C4C616D61646120656E000092
:103D7000637572736F0000004C4C616D616461008B
:103D800066696E616C697A61646100004D6172639D
:103D9000616E646F2E2E2E0041542B434C49503DD2
:103DA000310D0A00415448300D0A00004154480DBD
:103DB0000A0000004E756D65726F3A004F4B0000AF
:103DC000436F6E656374616E646F2E2E2E0000006B
:103DD00050726573696F6E61202A000041540D0AAC
:103DE000000000004552524F520000004154410D66
:103DF0000A000000415448300D0A00000000000095
:103E0000000000000102030406070809000000008A
:103E10000102030402030405060708090A0B0C0D3E
:083E20000E0F1010010200005A
:043E2800310100085C
:043E2C000D0100087C
:103E3000010100000024F400100000000100000057
:040000050800158951
:00000001FF
